{
  "contractName": "SaveTokens",
  "abi": [
    {
      "inputs": [
        {
          "internalType": "address",
          "name": "forwarder",
          "type": "address"
        }
      ],
      "stateMutability": "nonpayable",
      "type": "constructor"
    },
    {
      "anonymous": false,
      "inputs": [
        {
          "indexed": true,
          "internalType": "address",
          "name": "_to",
          "type": "address"
        },
        {
          "indexed": false,
          "internalType": "uint256",
          "name": "_value",
          "type": "uint256"
        }
      ],
      "name": "Transfer",
      "type": "event"
    },
    {
      "stateMutability": "payable",
      "type": "fallback",
      "payable": true
    },
    {
      "inputs": [
        {
          "internalType": "address",
          "name": "forwarder",
          "type": "address"
        }
      ],
      "name": "isTrustedForwarder",
      "outputs": [
        {
          "internalType": "bool",
          "name": "",
          "type": "bool"
        }
      ],
      "stateMutability": "view",
      "type": "function",
      "constant": true
    },
    {
      "inputs": [],
      "name": "trustedForwarder",
      "outputs": [
        {
          "internalType": "address",
          "name": "",
          "type": "address"
        }
      ],
      "stateMutability": "view",
      "type": "function",
      "constant": true
    },
    {
      "stateMutability": "payable",
      "type": "receive",
      "payable": true
    },
    {
      "inputs": [],
      "name": "versionRecipient",
      "outputs": [
        {
          "internalType": "string",
          "name": "",
          "type": "string"
        }
      ],
      "stateMutability": "view",
      "type": "function",
      "constant": true
    },
    {
      "inputs": [
        {
          "internalType": "address",
          "name": "receiver",
          "type": "address"
        },
        {
          "internalType": "uint256",
          "name": "tokenAmt",
          "type": "uint256"
        }
      ],
      "name": "sendTether",
      "outputs": [],
      "stateMutability": "payable",
      "type": "function",
      "payable": true
    }
  ],
  "bytecode": "0x608060405234801561001057600080fd5b506040516105b93803806105b9833981810160405281019061003291906100ed565b6100418161004760201b60201c565b5061011a565b806000806101000a81548173ffffffffffffffffffffffffffffffffffffffff021916908373ffffffffffffffffffffffffffffffffffffffff16021790555050565b600080fd5b600073ffffffffffffffffffffffffffffffffffffffff82169050919050565b60006100ba8261008f565b9050919050565b6100ca816100af565b81146100d557600080fd5b50565b6000815190506100e7816100c1565b92915050565b6000602082840312156101035761010261008a565b5b6000610111848285016100d8565b91505092915050565b610490806101296000396000f3fe6080604052600436106100435760003560e01c8063486ff0cd1461004f57806352d418151461007a578063572b6c05146100965780637da0a877146100d35761004a565b3661004a57005b600080fd5b34801561005b57600080fd5b506100646100fe565b60405161007191906102a8565b60405180910390f35b610094600480360381019061008f9190610363565b61013b565b005b3480156100a257600080fd5b506100bd60048036038101906100b891906103a3565b61018d565b6040516100ca91906103eb565b60405180910390f35b3480156100df57600080fd5b506100e86101e6565b6040516100f59190610415565b60405180910390f35b60606040518060400160405280600581526020017f322e322e33000000000000000000000000000000000000000000000000000000815250905090565b8173ffffffffffffffffffffffffffffffffffffffff167f69ca02dd4edd7bf0a4abb9ed3b7af3f14778db5d61921c7dc7cd545266326de282604051610181919061043f565b60405180910390a25050565b60008060009054906101000a900473ffffffffffffffffffffffffffffffffffffffff1673ffffffffffffffffffffffffffffffffffffffff168273ffffffffffffffffffffffffffffffffffffffff16149050919050565b60008060009054906101000a900473ffffffffffffffffffffffffffffffffffffffff16905090565b600081519050919050565b600082825260208201905092915050565b60005b8381101561024957808201518184015260208101905061022e565b83811115610258576000848401525b50505050565b6000601f19601f8301169050919050565b600061027a8261020f565b610284818561021a565b935061029481856020860161022b565b61029d8161025e565b840191505092915050565b600060208201905081810360008301526102c2818461026f565b905092915050565b600080fd5b600073ffffffffffffffffffffffffffffffffffffffff82169050919050565b60006102fa826102cf565b9050919050565b61030a816102ef565b811461031557600080fd5b50565b60008135905061032781610301565b92915050565b6000819050919050565b6103408161032d565b811461034b57600080fd5b50565b60008135905061035d81610337565b92915050565b6000806040838503121561037a576103796102ca565b5b600061038885828601610318565b92505060206103998582860161034e565b9150509250929050565b6000602082840312156103b9576103b86102ca565b5b60006103c784828501610318565b91505092915050565b60008115159050919050565b6103e5816103d0565b82525050565b600060208201905061040060008301846103dc565b92915050565b61040f816102ef565b82525050565b600060208201905061042a6000830184610406565b92915050565b6104398161032d565b82525050565b60006020820190506104546000830184610430565b9291505056fea2646970667358221220c21e2fcb34e1788a161bcae2c2ed7ee88de877d8b54b4e02d5cf3f745a8e20fe64736f6c634300080d0033",
  "immutableReferences": {},
  "source": "// contracts/Counter.sol\n// SPDX-License-Identifier: MIT\npragma solidity >=0.6.0 <0.9.0;\n\nimport \"@opengsn/contracts/src/BaseRelayRecipient.sol\";\nimport '@openzeppelin/contracts/token/ERC20/IERC20.sol';\n\ncontract SaveTokens is BaseRelayRecipient {\n\n    event Transfer( address indexed _to, uint256 _value);\n    constructor( address forwarder ) {\n        _setTrustedForwarder(forwarder);\n    }\n\n    fallback () external payable {\n        revert();\n    }\n\n    receive () external payable {\n    }\n    \n    function versionRecipient() external override view returns (string memory) {\n        return \"2.2.3\";\n    }\n    function sendTether(address receiver, uint256 tokenAmt) public payable {\n        // require(tether.transferFrom(_msgSender(), receiver, tokenAmt));\n        emit Transfer(receiver, tokenAmt);\n    }\n    \n    function _msgSender() internal view override( BaseRelayRecipient)\n      returns (address) {\n      return BaseRelayRecipient._msgSender();\n  }\n    \n}",
  "sourcePath": "/home/sui41/Music/capital/contracts/SaveTokens.sol",
  "compiler": {
    "name": "solc",
    "version": "0.8.13+commit.abaa5c0e.Emscripten.clang"
  },
  "schemaVersion": "3.4.3",
  "updatedAt": "2022-05-12T21:01:53.936Z",
  "networkType": "ethereum",
  "devdoc": {
    "kind": "dev",
    "methods": {},
    "version": 1
  },
  "userdoc": {
    "kind": "user",
    "methods": {
      "isTrustedForwarder(address)": {
        "notice": "return if the forwarder is trusted to forward relayed transactions to us. the forwarder is required to verify the sender's signature, and verify the call is not a replay."
      }
    },
    "version": 1
  }
}